:100000000C947F010C94C6010C94C6010C94DA0286
:100010000C94C6010C94C6010C94C6010C94C60144
:100020000C94C6010C94C6010C94741A0C94461BD3
:100030000C94EF150C94C6010C94C6010C94C601E7
:100040000C94C6010C94C6010C94C6010C94C60114
:100050000C94C6010C9457160C94C6010C94C6015E
:100060000C94C6010C94C6010C94C6010C94C601F4
:100070000C94C6010C94C6010C94C6010C94C601E4
:100080000C94C6010C94C6010C94C6010C94C601D4
:100090000C94C8010C94C6010C94C6010C94C601C2
:1000A0000C94C6010C94C6010C94C601A80CA80CB3
:1000B000DA0CDA0C300E300E300E300E270DC00D7B
:1000C000D10DD10DAA0EAA0EBC0EBC0EB30EBC0EE5
:1000D000BC0EBC0EAA0EAA0EB80EBC0EBC0EB80EFC
:1000E000B31BDA1BD21CDA1BD21C261C491CD21CE7
:1000F000A01CAF1C35001E001F00200021002200A4
:100100002B0014001A000800150017003900040025
:100110001600070009000A00E1001D001B00060090
:10012000190005000000E000E200E3002800015192
:100130002D00270026002500240023002E00130098
:1001400012000C0018001C00340033000F000E00D9
:100150000D000B00E50038003700360010001100DC
:1001600000000151E7002C002A00E00012500100BD
:100170000100010001000100115001007000710038
:100180000100010010501E027200730021022202C1
:100190000100010001000100010001000000010058
:1001A0000100010001000100010001000100010047
:1001B000010001002002220230002F002702260247
:1001C0001F0223024F00520051005000240231024E
:1001D0003702360230022F02000001000100010048
:1001E0000100010001000100010001000100010007
:1001F00011501E001F0020002100220010503B0063
:100200003C003D003E00A60040004100420043008B
:100210004400450000000100010001000100010050
:10022000005C010001000100010001000100270045
:10023000260025002400230000004F00520051003A
:1002400050000000310030002F002E002D00A600CD
:100250000000010001000100010001000403300062
:1002600000000E034C0069006C0079003500380076
:100270000000120346005F0059005500550043007E
:10028000480049000000040309040902220001019A
:1002900000A0FA0904000001030101000921110175
:1002A00000012240000705810308000A1201100125
:1002B0000000000851FC5800000101020301050183
:1002C0000906A101050719E029E715002501950890
:1002D000750181029501750881010507190029FF43
:1002E000150026FF009506750881000508190129EB
:1002F00005950575019102950175039101C01124C1
:100300001FBECFEFDAE0DEBFCDBF04B603FE27C0CD
:100310008091820290918302A0918402B091850223
:100320008730904BA740B04BD1F4109282021092CC
:100330008302109284021092850214BE84B7877FD4
:1003400084BF0FB6F894A89580916000886180936F
:100350006000109260000FBEE0E0F8E3099511E044
:10036000A0E0B1E0EAEBFAE302C005900D92AC39EF
:10037000B107D9F722E0ACE9B1E001C01D92A23883
:10038000B207E1F70E94B6170C945B1D0C940000B5
:100390001F920F920FB60F9211248F939F93EF939A
:1003A000FF938091B900887F803869F038F4882302
:1003B000C9F18036C9F510929C0136C0883A09F11E
:1003C000883BF9F031C080919C01811111C080916E
:1003D000BB0080939D0180919D01803120F010929F
:1003E0009D0180E001C081E091E090939C011DC0DF
:1003F000E0919D01F0E08091BB00E15AFD4F8083C8
:1004000008C0E0919D01F0E0E15AFD4F80818093AA
:10041000BB0080919D0190E001968F709927809399
:100420009D0102C01092BC0081E09091BC008295B9
:10043000880F880F807C9568892B8093BC00FF9182
:10044000EF919F918F910F900FBE0F901F90189575
:100450008EE14A9B02C08150E1F74A9BFECF08958E
:100460005A9880E28A95F1F75A9A0895FC012AE099
:100470002A95F1F790E020E080E031E0261779F04E
:1004800040E14A95F1F7880F4A9B02C081609327AB
:1004900000C0000040E14A95F1F72F5FEFCF20E167
:1004A0002A95F1F729B100C0000030E13A95F1F743
:1004B00022FB222720F992272081920F9083089512
:1004C000EF92FF920F931F93CF93DF931F92CDB7BD
:1004D000DEB719828C017C01E60EF11C0E151F059A
:1004E00059F00E94280268E0CE0101960E9436026F
:1004F000F80181938F01F2CF81E09981911180E021
:100500000F90DF91CF911F910F91FF90EF90089581
:100510009093A00180939F0160939E01529A5A9AF2
:1005200008959093A00180939F0160939E0152983B
:100530005A9AEA9AE9E6F0E080818F7C80830895F8
:10054000615091E001C0990F6A95EAF720E031E02F
:10055000992361F0492F482319F05A9A232701C0A3
:100560005A9840E24A95F1F79695F2CF222311F07E
:100570005A9A01C05A9880E28A95F1F75A980895DC
:10058000FF920F931F93CF93DF93EC018C01060F23
:10059000111DC017D10741F0F9900E94300268E0A8
:1005A0008F2D0E94A002F5CFDF91CF911F910F9167
:1005B000FF9008951F920F920FB60F9211240F9380
:1005C0001F932F933F934F935F936F937F938F93DB
:1005D0009F93AF93BF93EF93FF93CF93DF931F92BC
:1005E000CDB7DEB719820E94280267E0CE010196DE
:1005F0000E943602382F369536953695932F96956C
:100600009570232F2570920F292F2370969596951C
:100610008770920F891348C08981811145C08091EC
:100620009E01831708F440C080E18A95F1F75A9A39
:10063000529AA2E0AA95F1F700C000919F01109193
:10064000A001B8E03B9F000D111D11245A98F8013C
:100650006581662321F0868197810E94C0020E94F5
:100660003002F0E1FA95F1F75A9852985A9A80E1DF
:100670008A95F1F7D80112966C911297662369F06A
:1006800013968D919C9114970E946002D801ED9170
:10069000FC91811105C082E004C0D801ED91FC916C
:1006A00088E080830E9428020F90DF91CF91FF9114
:1006B000EF91BF91AF919F918F917F916F915F91DA
:1006C0004F913F912F911F910F910F900FBE0F905F
:1006D0001F9018950F931F93CF93DF9320919E0146
:1006E00030E0281739070CF471C09C0193E0220F09
:1006F000331F9A95E1F7C0919F01D091A001C20FDD
:10070000D31FF894529A5A9845E04A95F1F70000A1
:10071000982F969595708570890F982F9370869570
:100720008695890F8901082B0E94300284E08A9502
:10073000F1F700C067E0802F0E94A00240E14A95D7
:10074000F1F752985A9A4A9902C000C0FCCF87E04C
:1007500090E04A9B0EC0019751F4529A5A9AE88150
:10076000F98181E08083789481E090E031C000C01D
:10077000F0CF6D81662381F08E819F810E9460029F
:1007800081110AC0529A5A9AE881F98182E08083E5
:10079000789482E090E01CC00E94280280E28A9552
:1007A000F1F75A98529A40E14A95F1F76A81662327
:1007B00021F08B819C810E94C0020E943002E8815E
:1007C000F9811082789480E090E002C084E090E0AB
:1007D000DF91CF911F910F910895CF93DF93AFE2F7
:1007E000B1E044E351E061E070E08D91E82FE295E3
:1007F000EF70F0E021A18F70EB0102C0CC0FDD1F84
:100800008A95E2F7CE019C2F9095922391A392A115
:10081000892B82A34A175B0741F7DF91CF91089597
:1008200008950C9410040C9411040C9410040E946C
:10083000B4050E94ED03A9E2B1E041E050E08D91E2
:10084000E82FE295EF70F0E021A18F70BA0102C0AD
:10085000660F771F8A95E2F7CB01962F909592232A
:1008600091A392A1892B82A371E0AF32B70739F728
:10087000209A559A289A5D9AEBEAF1E0A1EAB1E054
:1008800011921D9281E0E53BF807D1F70E94950592
:100890008093B5010C944D069F92AF92BF92CF9278
:1008A000DF92EF92FF920F931F93CF93DF9380918C
:1008B0000101811103C0C5E0D0E002C0C0E0D0E07A
:1008C000AE014F555E4F7A018FE2C82E81E0D82EDF
:1008D0008A01AA24A394B12C25E0922EF4E3CF162A
:1008E000F1E0DF0609F44AC0F60181916F01E82FBB
:1008F000E295EF70F0E021A18F70A50102C0440FD6
:10090000551F8A95E2F7CA01922F982B91A392A1C5
:100910008095892382A350EA5A95F1F7E9E2F1E044
:1009200020E040E050E03191A32FA295AF70B0E0FD
:1009300090968C9190E03F7002C0959587953A957E
:10094000E2F780FD07C0C501042E01C0880F0A949C
:10095000EAF702C080E090E0282B4F5F5F4F4630FF
:10096000510509F7F8018081821719F020839092D0
:1009700000010E94ED030F5F1F4FB0CF8091000177
:100980008823B1F0815080930001811103C0C555C7
:10099000DE4F07C08FE99FE00197F1F700C000002C
:1009A00007C0F70191917F0199938F5F8530C9F757
:1009B00081E0DF91CF911F910F91FF90EF90DF9039
:1009C000CF90BF90AF909F900895CF93DF932091E9
:1009D0000101211103C0C0E0D0E002C0C5E0D0E0B9
:1009E0000E94CF05009721F0029781F428980EC04D
:1009F000289ADE01A555BE4F85E0E2ECF1E00190BA
:100A00000D928A95E1F780E090E002C081E090E0ED
:100A1000DF91CF9108950E944C04809101018111D2
:100A200003C0E5E0F0E002C0E0E0F0E0E555FE4F95
:100A300020E030E080E0D901AE53BE4F4C9191915F
:100A4000491381E09C932F5F3F4F2530310599F783
:100A50009091BA01890F8093BA010895CF93DF93E3
:100A60008091B501882309F43FC00E944C04809115
:100A70000101811103C0C5E0D0E002C0C0E0D0E0B8
:100A8000C555DE4F45E050E0BE018DEB91E00E9480
:100A90000C1D25E0FE01ADEBB1E001900D922A9511
:100AA000E1F70E94E504892BD9F05D988091B601A9
:100AB0008F5F8093B601863058F1809101018111DA
:100AC00003C0E0E0F0E002C0E5E0F0E0E555FE4FF5
:100AD00080E090E01192019685309105D9F718C019
:100AE0005D9A1092B60114C00E940B05809101011D
:100AF000811103C0A0E0B0E002C0A5E0B0E0A555C0
:100B0000BE4F85E0EDEBF1E001900D928A95E1F7A3
:100B10000E94550681E0DF91CF910895E82FF0E023
:100B2000E555FE4F8081089508958091B7018111A8
:100B300012C08091D80080618093D8008AE18A95A4
:100B4000F1F700C08091D90080FD02C082E001C0B1
:100B500081E08093B70181E09091B701913009F075
:100B600080E008950C9495050E94B20580930101E0
:100B70000E949505882319F00E94C30502C00E94B7
:100B8000C9057894089563E070E082E091E00C94E8
:100B9000880263E070E082E091E00C9491020F9390
:100BA0001F93CF93DF938C0190911B0180911A01C9
:100BB000981761F082E090E00E946A03EC01892BB3
:100BC00039F480911A0180931B0102C0C0E0D0E08B
:100BD000012B49F48091B8019091B901892B19F446
:100BE00080E090E002C081E090E00E946A03892BDF
:100BF00049F48091BA0180931A011092B9011092C0
:100C0000B80106C081E090E09093B9018093B801EB
:100C1000CE01DF91CF911F910F9108950C94120690
:100C200081E0089581E008951F93CF93DF9300D072
:100C300000D01F92CDB7DEB749835A836B832091D2
:100C4000DC0189819A81211112C0662349F00E943A
:100C50007F13182F682F89819A810E94261303C061
:100C60000E945213182F69817A81812F04C00E943B
:100C70007F1369817A810F900F900F900F900F90E2
:100C8000DF91CF911F910C94B906FC0140815181F5
:100C90006281738184810C9414060E94A4148111D2
:100CA00002C00E9444150C9413040C94150408957A
:100CB0000C94570681E008950C945A06CF93C82FE0
:100CC0000E9458068C2F0E945C06CF9108950895CB
:100CD0000E94980E0E9467062FEF84E39CE021504B
:100CE00080409040E1F700C0000087E797E79093CD
:100CF0000108809300080C947D160F931F93CF93E7
:100D0000DF93EC010E9445068C01BE010E940E0695
:100D1000882349F1BE01C8010E940809882319F1FE
:100D2000BE01C8010E9449098823E9F0BE01C8013B
:100D30000E94740A8823B9F08A81882369F001151A
:100D40008CE5180731F00E3D1C4531F40E94441526
:100D50000AC00E94680607C0CE01DF91CF911F91A3
:100D60000F910C94100680E0DF91CF911F910F91AD
:100D700008952CE3829FC0011124FC0126E0729F9C
:100D8000E00DF11D1124E60FF11DEE0FFF1FEC50D9
:100D9000FF4F859194910895CF93DF930E94B906F8
:100DA0000E94BD07EC0181159245F0F5C11581E562
:100DB000D80708F0A9C0C83ED10528F5C03ED10526
:100DC00008F0D7C0C83AD10578F4C53AD10508F083
:100DD00074C0C130D10509F4CCC008F4C8C0C43017
:100DE000D10508F0C6C0C3C0CF3BD10508F0BFC0D5
:100DF000C85AD0E0CC0FDD1FC75CDE4F0990D88108
:100E0000C02DD464B6C0C11590E5D90708F060C004
:100E1000C11520E4D20708F058C0CE019A9581157B
:100E20009F4108F4A6C0A3C0C11586E5D80718F5F0
:100E3000C11595E5D90708F080C0C11524E5D20792
:100E400008F076C09E01237033278C2F86958695F7
:100E5000C115D34508F05DC0C1E0D0E002C0CC0FA1
:100E6000DD1F2A95E2F720E2829FC0011124C82BE2
:100E7000D92BDC687EC0C1152AE5D20778F4C115EC
:100E800089E5D80708F063C0C11598E5D90708F4CB
:100E90006EC0DC2FCC27C06FD06A6BC0CE019056DD
:100EA0008115904208F063C08D2F8F710E94510808
:100EB000DD27D0628F71D82B5CC0C55AD0E0C959EC
:100EC000DE4FC881D0E0D06454C0DF70D06A51C01A
:100ED000CE0174E0969587957A95E1F783709C2F03
:100EE000937021E030E002C0220F331F9A95E2F7A1
:100EF0003C68382BCF70C695C69580E2C89FE0014C
:100F00001124C22BD32B35C0DC2FCC27C16FD06A64
:100F100030C0C1E0D0E002C0CC0FDD1F2A95E2F75F
:100F200020E2829FC0011124C82BD92BDA6821C08E
:100F3000DC2FCC27C46FD06A1CC08C2F0E945108B4
:100F40008F71C82FD0E0DC2FCC27D06212C08C2F3D
:100F50008F700E94510894E0D695C7959A95E1F755
:100F6000CF70D0E0DC2FCC27D069C82B02C0C0E006
:100F7000D0E0CE01DF91CF9108958238910569F1DB
:100F8000B0F48133910509F46DC048F489329105BC
:100F900009F463C08A32910509F469C00895853364
:100FA000910509F455C089339105B9F00895833E40
:100FB000910569F138F4803E9105B1F0823E9105CA
:100FC00009F10895863E9105A9F1873E9105B9F191
:100FD000843E910509F064C023C02091730220FD76
:100FE0004FC021FD4DC008958091730280FD44C023
:100FF0008091740280FF44C08091730284FD42C0DE
:1010000083EE4DC08091730282FF38C0F5CF80918E
:10101000730282FD33C08091740280FD31C0ECCF39
:101020008091740281FF32C08091730284FD2AC0D6
:1010300087EE35C08091730283FF26C0F5CF809183
:10104000730283FD21C08091740281FD1FC0ECCF2B
:101050008091730285FD1CC01DC08091730285FDC7
:1010600019C016C08091730286FD16C017C080910A
:10107000730286FD13C010C089E311C082EE0FC059
:1010800080EE0DC080E00BC086EE09C084EE07C084
:1010900089E205C085E303C08AE201C081E390E0F4
:1010A00008959091730292FF0DC0282F2871283067
:1010B00019F4877F846006C0282F2471243011F42E
:1010C0008B7F886093FF0DC0282F2871283119F479
:1010D000877E846106C0282F2471243111F48B7E11
:1010E00088612091740220FF0DC0382F387138308C
:1010F00019F4877F816006C0382F3171313011F4C7
:101100008E7F886021FF0DC0282F2871283119F4A7
:10111000877E816106C0282F2171213111F48E7ED6
:10112000886194FD877E08950F931F93CF93DF937B
:10113000C62FD42F122FFC0182818823C9F060931F
:10114000C9010E9421169093C8018093C70180E2D3
:101150008C0F883008F057C0C77081E001C0880F3D
:10116000CA95EAF7DF91CF911F910F910C94640C0F
:101170008091C901681330C08091C7019091C80166
:101180000E942D168436910538F500E20D0FCD171B
:10119000B9F080E28C0F883040F4C77081E001C064
:1011A000880FCA95EAF70E946B0C083028F581E099
:1011B0009D2F977001C0880F9A95EAF70E94640CE2
:1011C000812F0E94510C0830F0F4D77081E001C0EB
:1011D000880FDA95EAF70AC080E28C0F883098F41D
:1011E000C77081E001C0880FCA95EAF7DF91CF91FF
:1011F0001F910F910C946B0C812FDF91CF911F9158
:101200000F910C94510CDF91CF911F910F91089584
:101210009C01CB01233F4CE53407F9F078F4283DDD
:10122000FCE53F07B9F0293D4CE5340711F1273DB6
:101230003C4531F526E241EE61EE1EC0253FFCE55E
:101240003F0799F070F0263F3C45D1F427E245EE88
:1012500066EE12C027E245EE0EC026E241EE60EED9
:101260000BC027E245EE64EE07C026E241EE62EED7
:1012700003C028E241E065EE0E94940880E00895F2
:10128000FC018281882319F01092C901089581E040
:101290000895CF93DF93EC01FB018281882309F449
:1012A0001FC1C230FCE5DF0708F41BC1C6319CE555
:1012B000D90738F09E012A5F3C452930310508F0F6
:1012C00010C10E94B7149093740280937302C031CE
:1012D000ECE5DE0709F4C3C008F041C0C8308CE576
:1012E000D80709F49AC0F0F4C430ECE5DE0709F43D
:1012F00087C068F4C2308CE5D80709F477C0C330E2
:10130000DC4509F0E3C080917302826076C0C6308C
:10131000ECE5DE0709F46EC008F07BC08091730233
:1013200088606BC0CC308CE5D80709F485C068F4C0
:10133000CA30ECE5DE0709F474C008F079C00E94F9
:10134000980E80917302806858C0CE308CE5D80723
:1013500009F476C008F07FC0809173028BC0CB3F48
:10136000ECE5DE0709F44FC018F5C3318CE5D8076A
:1013700009F47DC078F4C131ECE5DE0709F473C0EF
:10138000C231DC4509F0A2C00E94980E8091730220
:101390008F7733C0C5318CE5D80709F472C008F4E3
:1013A00086C0CA3FDC4509F091C0809174023EC0FE
:1013B000CF3FFCE5DF0709F45FC058F4CD3F9CE563
:1013C000D90709F444C008F43FC0809174028260D8
:1013D0002DC0C130FDE5DF0709F475C008F45DC01C
:1013E000C230DD4509F072C080E06EC080917302AA
:1013F000816003C08091730280618093730266C034
:101400008091730211C08091740282608093740293
:101410005DC0809173028062F0CF8091730280641E
:10142000ECCF8091730288608460E7CF8160EECF5B
:10143000809173028E7FE1CF809173028D7FDDCF2B
:1014400080917302877FD9CF8091740218C08091F8
:1014500074028D7FDBCF809173028F7ECECF80911F
:1014600073028F7DCACF809173028F7BC6CF80912C
:101470007302877F8B7FC1CF809174028D7F8E7FB7
:10148000C5CF8091730282FB222720F991E0922739
:1014900090FB82F990FB83F9B0CF80917402982F72
:1014A000909591708E7F892B90FB81F9AFCF0E9430
:1014B000980E8091730287FB222720F991E09227F2
:1014C00090FB87F99ACF81E00E94461580917302C4
:1014D000909174020E94C8140E94980E80E001C08E
:1014E00081E0DF91CF910895CF93DF9386319C45C2
:1014F00041F5EB010E940014982F8A8120911C0174
:1015000030911D01882379F09A7A81E009F480E016
:101510008093CA01911102C069E201C065E3C9016B
:101520000E948D150AC08091CA01811102C069E232
:1015300001C065E3C9010E948F150E94411480E03B
:1015400001C081E0DF91CF9108959093D001809305
:10155000CF010895E091CF01F091D001309721F0B3
:101560000190F081E02D099480E00895E091CF0191
:10157000F091D001309721F00280F381E02D0994A1
:1015800008952091CD013091CE012817390771F0CF
:101590009093CE018093CD01E091CF01F091D001E5
:1015A000309721F00680F781E02D0994089520916D
:1015B000CB013091CC012817390771F09093CC0101
:1015C0008093CB01E091CF01F091D001309721F0D1
:1015D0000084F185E02D0994089585B7806885BF62
:1015E00085B7806885BF089508950C94F40A0C941B
:1015F000F50A0C94F40A0C94F40A0E94ED0A0E9475
:10160000F90A0C94F70A81E008950E9418160E94C6
:1016100017040E948E160C94FB0AAF92BF92CF92D1
:10162000DF92EF92FF920F931F93CF93DF93CDB78B
:10163000DEB72A970FB6F894DEBF0FBECDBF0E946B
:101640002E050E94030B811111C08FEF89838A83BD
:101650001B820E9421168160782F9D838C83498193
:101660005A816B818D810E94A30B40C082EDA82E10
:1016700081E0B82E00E010E0C02E802F0E948E0581
:10168000E82EF501D1905F01D82631F40F5F1F4F8E
:101690000A30110589F7D9CF8091520281FD0E944D
:1016A000940580E0FF24F3949D2D9F21D1F08E833B
:1016B000CF82EF2081E009F480E088870E94211624
:1016C0008160782F9A8789874E815F8168858A85B6
:1016D0000E94A30BF801EE52FE4F8081F826F082A3
:1016E00005C08F5FFF0C8630F9F6D0CF0E94AA0AA2
:1016F0009091D1018917B1F00E94AA0A8093D1017B
:101700002A960FB6F894DEBF0FBECDBFDF91CF9102
:101710001F910F91FF90EF90DF90CF90BF90AF900F
:101720000C945E062A960FB6F894DEBF0FBECDBFAE
:10173000DF91CF911F910F91FF90EF90DF90CF90AD
:10174000BF90AF900895CF93DF93CDB7DEB72B97BF
:101750000FB6F894DEBF0FBECDBF4F8358876987A1
:101760007A878B87DE01119686E0FD0111928A95BA
:10177000E9F785E0FE01379601900D928A95E1F731
:1017800049815A816B817C818D819E810E94681183
:101790002B960FB6F894DEBF0FBECDBFDF91CF9171
:1017A0000895FC01808191810E94C1130895CF9317
:1017B000882309F448C0C82F8CEF8C0F813AD0F4ED
:1017C0006C2F80911C0190911D010E945715882358
:1017D00049F06C2F80911C0190911D010E948F1582
:1017E0000E9441146C2F80911C0190911D010E9458
:1017F0008D150CC080E28C0F883058F4C77081E0E2
:1018000001C0880FCA95EAF70E940314CF910C9487
:101810004114EBE5EC0FE33040F4F0E0E856FE4F06
:10182000808190E0CF910C94C10AC85AC73158F416
:10183000EC2FF0E0EE0FFF1FE659FE4F8081918103
:10184000CF910C94D70ACF910895882349F1682F3E
:101850008CEF860F813A38F480911C0190911D0124
:101860000E948F150CC080E2860F883050F467709C
:1018700081E001C0880F6A95EAF70E9409140C9470
:1018800041148BE5860F833020F480E090E00C94C7
:10189000C10A685A673120F480E090E00C94D70ABE
:1018A0000895CF93C82F0E94D70BC93349F42FEF67
:1018B00087EE93E0215080409040E1F700C00000A7
:1018C0008C2FCF910C94250C882321F00E940314B7
:1018D0000C9441140895882321F00E9409140C945B
:1018E00041140895CF92DF92EF92FF920F931F93CE
:1018F000CF93DF937C01D62FC72FFC011581129562
:101900001F70028101110E9420140E94F913882384
:1019100079F0002369F080E28D0F883048F082E092
:101920000E948B140E94F91391E0D82ED92601C091
:10193000D12CCC2EC2948FE0C8228C2D90E08C301C
:10194000910508F08DC1FC01EA5AFF4F0C94061D69
:101950008C2F807FCF70882311F0C295C07F002329
:1019600099F0CC2309F468C180E28D0F883010F023
:10197000D11104C08C2F0E94031403C08C2F0E942D
:1019800013140E94411458C18D2F0E94250CCC23A2
:1019900009F466C180E28D0F883010F0D11104C0C7
:1019A0008C2F0E94091403C08C2F0E9419140E94CE
:1019B000411456C18C2F807FCF70803211F0C295B8
:1019C000C07FDD2319F0D130C9F022C0002371F0AF
:1019D000112341F0113031F40E9426148C2B0E9407
:1019E0002E143EC10E9426148C2B1DC0112319F009
:1019F000113009F435C10E94371425C0002321F0AD
:101A0000163008F02DC10EC0153008F029C11BC0DA
:101A1000002361F0112331F0F701858180FF0CC1B3
:101A20008F7085838C2F0E94640C1AC1112359F08A
:101A3000D93309F012C1FFEF07EE13E0F150004077
:101A40001040E1F708C18C2F0E946B0C09C18C2F4C
:101A5000837009F047C0011107C12D2F22952695EB
:101A60002770220F220F6D2F6F70862F90E0A0E05D
:101A7000B0E0022E04C0880F991FAA1FBB1F0A9452
:101A8000D2F7D4FF10C04FE050E060E070E004C037
:101A9000440F551F661F771F2A95D2F74095509522
:101AA0006095709503C040E050E0BA01C695C695B8
:101AB000C3708A019B01082B192B2A2B3B2BC901D0
:101AC000B801C23049F058F4C13019F00E943C12FC
:101AD000CBC00E942A12C8C00E944E12C5C00E94EC
:101AE0002812C2C0002319F08C2F817001C0869586
:101AF000882309F4B9C02D2F229526952770220F2F
:101B0000220F6D2F6F70862F90E0A0E0B0E0022EC4
:101B100004C0880F991FAA1FBB1F0A94D2F7D4FFD5
:101B200010C04FE050E060E070E004C0440F551F6B
:101B3000661F771F2A95D2F740955095609570954E
:101B400003C040E050E0BA01C695C695C3708A0153
:101B50009B01082B192B2A2B3B2BC901B801C23042
:101B600049F058F4C13019F00E9401137DC00E9461
:101B7000EF127AC00E94131377C00E94621274C0E1
:101B8000CF70002339F08C2F0E9488128D2F0E9475
:101B9000640C6AC08D2F0E946B0C8C2F0E94A912BE
:101BA00063C0D23F01F128F4D03F41F0D13FA1F012
:101BB0003FC0D33FF9F0D43F39F13AC0002341F0A0
:101BC000153008F04DC08C2F8F710E94CE1248C086
:101BD000163008F045C0F7CF002339F08C2F8F71F5
:101BE0000E9488123DC00023C9F38C2F8F710E9480
:101BF000A91236C0002329F08C2F8F710E94731216
:101C00002FC00E946E122CC0002349F0CF718C2F80
:101C10000E94881263E08C2F0E94761421C081E01C
:101C20000E948B141230E0F082E00E948B1418C0E6
:101C3000002331F0112391F28D2F0E94D70B10C099
:101C4000112399F2D93349F41FEF27EE33E01150F5
:101C500020403040E1F700C000008D2F0E94250C8D
:101C600088EF8C0D843020F40E94AA0A0E945E0640
:101C7000DD20C9F00E94F51380FD15C0F701128226
:101C80000E94EF130E948812C7010E945C0E0E94FE
:101C9000EF13DF91CF911F910F91FF90EF90DF90A5
:101CA000CF900C94A912DF91CF911F910F91FF90CB
:101CB000EF90DF90CF9008950F931F93CF93DF9312
:101CC000EC01988189812B813C81232B31F08F3F5E
:101CD00031F481E09F3F19F403C081E001C080E04E
:101CE00080FD13C0CE010E947D06882371F06881BB
:101CF00079818A810E94CC138C010E9425130E9455
:101D00001612B801CE010E94720CDF91CF911F9183
:101D10000F9108950E9420140E9423140C944114E2
:101D200080911C0190911D010E9491150C948A0EC6
:101D30000E9410140C94900EE92FE295EF704E2F34
:101D400050E0FA013297EE30F105B0F4EE59FF4F52
:101D50000C94061D803F91F018F4883E68F40EC084
:101D6000843F51F40BC0883E48F0813F29F406C0FF
:101D700093FB882780F9089580E0089581E0089515
:101D80000E94C1130E949C0E0895CF93DF9300D050
:101D900000D01F92CDB7DEB70F900F900F900F902D
:101DA0000F90DF91CF910895CF93DF9300D000D0B3
:101DB00000D0CDB7DEB726960FB6F894DEBF0FBEC3
:101DC000CDBFDF91CF9108951F93CF93DF93C09143
:101DD000DD0116E08091DE01C81799F0D0E01C9F6C
:101DE000F0011D9FF00D1124E152FE4F4081518101
:101DF00062817381848195810E94D40E2196C7707F
:101E0000E9CFDF91CF911F91089540910F0250913A
:101E10001002609111027091120280911302909150
:101E200014020C94D40ECF938091140282958F707B
:101E300009F05FC080911102882309F45AC0809193
:101E4000DD01B091DE0170910F02A091100240916E
:101E500012025091130291E07F3F09F090E0692F48
:101E6000C6E08B1709F445C04115510521F0AF3F7D
:101E700021F020E003C021E001C0262F90E020FDEA
:101E800035C0C89FF001C99FF00D1124E152FE4FEB
:101E900021812A132BC02081271328C022812111E0
:101EA00025C0238134812417350710F421503109CE
:101EB000241B350B24363105C8F4209114022F70F1
:101EC00020612093140226E0289FF001299FF00D45
:101ED0001124EC51FE4F80818F70806180838FE0F0
:101EE00092E00E945C0ECF910C94E40E01968770F4
:101EF000B8CFCF910895AF92BF92CF92DF92EF9279
:101F0000FF920F931F93CF93DF93CDB7DEB7619707
:101F10000FB6F894DEBF0FBECDBF8C0185E0F8018F
:101F2000DE011D9601900D928A95E1F7D8014C9142
:101F300011965C9111971296EC9030910F0260917E
:101F400010028091120290911302009731F06F3FBE
:101F500031F421E03F3F19F403C021E001C020E04B
:101F6000B22FB170BB2E20FD60C1F801C380D480B8
:101F7000A0901102AA2009F4EEC020911402C81604
:101F8000D90628F0D601A81BB90BCD0104C0809555
:101F900090958C0D9D1DFF24F3948436910580F05F
:101FA000F12C207F09F09CC07C2DD98AC88A6E2D27
:101FB00089890E94C50E8FE092E00E945C0E2DC1BF
:101FC000822F807F09F054C0561314C0431312C0EF
:101FD000FE2CE1100FC02F702061209314020E948C
:101FE000050F8FE092E00E945C0E80911402F801D0
:101FF00085835CC1CD2831F05F3F31F481E04F3FF4
:1020000019F403C081E001C080E080FD03C081E0DD
:102010008E2502C080E090E0F82FF170FF2E80FF47
:102020001CC08091DD012091DE0136E0821709F4A9
:102030001AC190E0389FF001399FF00D1124E15250
:10204000FE4F6181561306C06081461303C0628152
:10205000E61203C001968770E9CFFE2CEE2009F44A
:1020600025C180911402816080931402F12C1EC15D
:10207000561309C0431307C0E11005C08091140234
:10208000F8018583A4C04D875E878D859E850E945B
:10209000C00E882379F1EE2069F120911402822F7D
:1020A00082958F7090E0029774F080910F0290916A
:1020B000100298878F831986DB86CA862C87CE010B
:1020C00007960E945C0E86E0F801AFE0B2E0019056
:1020D0000D928A95E1F70E94130F0E94050F0DC023
:1020E000561771F04D875E878D859E850E94C00EC4
:1020F00081111AC0C8010E945C0EFF24F394D6C05F
:102100004313F0CFE110EECF80911402F8018583E4
:10211000C8010E945C0E86E0EFE0F2E0DF011D9254
:102120008A95E9F7FA2CC2C0EE2021F3209114021F
:10213000822F82958F7090E002972CF280910F028F
:10214000909110029A8389831B82DD82CC822E8338
:10215000CE010196B6CFC816D90628F0F601E81BC5
:10216000F90BCF0104C0809590958C0D9D1D843690
:10217000910548F0F12C7C2DD98AC88A6E2D898969
:102180000E94C50E4AC0FE2CEE2009F4B3CF5613B0
:1021900033C0431331C02091140220FD24C0822F8C
:1021A00082958F70482F50E041155105E1F0D8011C
:1021B00015962C9315974F30510549F08F5F982F46
:1021C0009295907F822F8F70892B15968C93C801E2
:1021D0000E945C0E86E0F801AFE0B2E001900D9243
:1021E0008A95E1F73DC086E0F801AFE0B2E00190EA
:1021F0000D928A95E1F75AC04D875E878D859E8541
:102200000E94C00E81115FCF809114028160809383
:102210001402C8010E945C0E49C0EFE0F2E086E0C3
:10222000DF011D928A95E9F71BC0EE2009F462CF09
:102230004D875E878D859E850E94C00EF82E88236F
:1022400009F458CF86E0F801AFE0B2E001900D92BA
:102250008A95E1F78FE092E00E94D10B0E94130F64
:102260000E94050F23C04D875E878D859E850E9445
:10227000C113292F22952F70223028F49F7039F036
:10228000811105C00BC0243028F49F7049F4805E92
:10229000883020F0C8010E945C0EBF2CFB2C06C0C9
:1022A000D80115969C91907F91F7F8CF8F2D61966C
:1022B0000FB6F894DEBF0FBECDBFDF91CF911F9157
:1022C0000F91FF90EF90DF90CF90BF90AF90089567
:1022D0001F93CF93DF93CDB7DEB72C970FB6F8944B
:1022E000DEBF0FBECDBF4F83588769877A878B8744
:1022F0009C87CE0107960E947B0F8823D1F09F8197
:1023000088852A853B85232B31F08F3F31F481E08E
:102310009F3F19F403C081E001C080E080FD47C009
:102320004F81588569857A858B859C850E94D40E5E
:102330003EC086E0FE013796DE01119601900D92B7
:102340008A95E1F7FF81E8856A857B8561157105CE
:1023500031F0EF3F31F481E0FF3F19F403C081E039
:1023600001C080E080FD23C02091DE0130E0C90182
:102370000196877099274091DD0150E084179507F9
:10238000F1F1F983EA837D836C8396E0929FD0011B
:10239000939FB00D1124A152BE4FFE0131960190C2
:1023A0000D929A95E1F78093DE010E94E40E16E00B
:1023B0008091DD019091DE01891771F1189FC001B4
:1023C000112481529E4F0E947B0F882329F1E091B6
:1023D000DD011E9FF0011124E152FE4F4081518129
:1023E00062817381848195810E94D40E8091DD0188
:1023F00090E00196877099278093DD01D9CF0E94E4
:10240000980E1092DE011092DD01EFE0F2E086E01E
:10241000DF011D928A95E9F72C960FB6F894DEBF7E
:102420000FBECDBFDF91CF911F91089508950895FC
:102430000C9417120C9418120E941A126093410205
:102440007093420280934302909344020C948A0E4C
:102450000C941C120F931F930091410210914202A1
:102460002091430230914402602B712B822B932BDD
:102470001F910F910C941C120F931F930091410216
:102480001091420220914302309144026023712353
:10249000822393231F910F910C941C120F931F936F
:1024A0000091410210914202209143023091440276
:1024B00060277127822793271F910F910C941C127C
:1024C0000C9417120E94601260933D0270933E02BA
:1024D00080933F02909340020C948A0E60E070E07B
:1024E000CB010C9462120F931F9341E050E060E027
:1024F00070E08A019B0104C0000F111F221F331FCF
:102500008A95D2F7C901B8011F910F910C946212FC
:102510000F931F9341E050E060E070E004C0440F6F
:10252000551F661F771F8A95D2F780913D029091C3
:102530003E02A0913F02B09140028A019B01082B0C
:10254000192B2A2B3B2BC901B8011F910F910C9419
:1025500062120F931F9341E050E060E070E004C00E
:10256000440F551F661F771F8A95D2F740955095E7
:102570006095709580913D0290913E02A0913F023E
:10258000B09140028A019B01082319232A233B238F
:10259000C901B8011F910F910C9462120F931F9300
:1025A00041E050E060E070E004C0440F551F661F3A
:1025B000771F8A95D2F780913D0290913E02A091BB
:1025C0003F02B09140028A019B01082719272A2760
:1025D0003B27C901B8011F910F910C9462120F9310
:1025E0001F9300913D0210913E0220913F023091D5
:1025F0004002602B712B822B932B1F910F910C9417
:1026000062120F931F9300913D0210913E022091A0
:102610003F023091400260237123822393231F9154
:102620000F910C9462120F931F9300913D02109131
:102630003E0220913F02309140026027712782279D
:1026400093271F910F910C9462120895292F220F46
:10265000920F990F890FE82FE695E695E69587701A
:1026600051E001C0550F8A95EAF785E0E89FF00137
:102670001124EB5EFD4F20E030E070E04081CB01A3
:10268000022E02C0969587950A94E2F78170819593
:1026900084278523842781932F5F3F4F2530310581
:1026A00069F70895292F220F920F990F890F682F2C
:1026B000669566956695982F977085E0689FB0013E
:1026C000112440E050E080E0FB01E40FF51FEB5ED9
:1026D000FD4F208130E0092E02C0369527950A94DF
:1026E000E2F721703327042E01C0220F0A94EAF783
:1026F000822B4F5F5F4F4530510531F70895BF92F0
:10270000CF92DF92EF92FF920F931F93CF93DF93BD
:102710008C01C0903D02D0903E02E0903F02F090CC
:1027200040028091410290914202A0914302B091F7
:102730004402C82AD92AEA2AFB2ACFE1D0E0D701ED
:10274000C6010C2E04C0B695A795979587950A9457
:10275000D2F780FD04C0219790F7B12C07C0BC2EA2
:10276000B8018C2F0E94CC060197A9F38B2DDF9125
:10277000CF911F910F91FF90EF90DF90CF90BF907E
:102780000895CF93DF93EC010E947F13BE010E9456
:10279000CC06DF91CF9108951F93CF93DF93EB0188
:1027A0009091DC01992321F0CB010E94C11313C049
:1027B000882349F0CB010E947F13182F682FCE0188
:1027C0000E94261304C0CB010E945213182FBE0191
:1027D000812F0E94CC06DF91CF911F9108958091A7
:1027E0004502859585958595089580914502877068
:1027F000089590914502977081E009F480E0089572
:1028000080915102089590915102892B8093510239
:1028100008958095909151028923809351020895E3
:1028200010925102089590915002892B809350028A
:1028300008958095909150028923809350020895C5
:1028400010925002089510924F020895809146020E
:10285000089508950C9429140C942A14909146021A
:10286000981721F0809346020C942C1408958091BF
:102870004602882329F01092460280E00C942C1422
:102880000895E0911C01F0911D0180915102808317
:10289000E0911C01F0911D01908180915002892BE3
:1028A0008083E0911C01F0911D01908180914F0285
:1028B000892B808380914602882381F0E0911C015E
:1028C000F0911D019081892B808380911C01909152
:1028D0001D010E944B1581110E94371480911C012B
:1028E00090911D010C94B60A0C94291498E0899FCC
:1028F00090011124262B209345020E94881280917A
:1029000045028595859585950C9474141092450221
:1029100080E00C947414209145028095822380936A
:102920004502982F977079F430E0482F082E000C5C
:10293000550B2417350739F08595859585950E94A7
:10294000A9120C948614089580E090E00E94211D45
:1029500021E08C3E9E4F09F020E0822F089582E016
:1029600090E00C94191D83E090E00C94191DCF9316
:1029700084E090E00E94191DC82F81E290E00E943F
:10298000191D2C2F30E0A901582BCA01CF910895B1
:10299000CF93C92F682F84E090E00E94271D6C2FF1
:1029A00081E290E0CF910C94271DAB01BC018FE038
:1029B00090E00C94391DAB01BC0183E190E00C94D4
:1029C000391D60E070E0CB010C94DB1460E070E036
:1029D000CB010E94D5140C94E1146CEE7EEF80E0E4
:1029E00090E00E94451D60E082E090E00E94271D7B
:1029F00060E083E090E00E94271D10924102109257
:102A00004202109243021092440260E084E090E09F
:102A10000E94271D60E081E290E00E94271D60E097
:102A200085E090E00E94271D60E086E090E00E9433
:102A3000271D6FEF87E090E00E94271D40E050E0E7
:102A4000BA0188E090E00E94391D60E08DE090E0DE
:102A50000E94271D40E050E0BA0188E190E00E940A
:102A6000391D60E087E190E00E94271D40E050E0C2
:102A7000BA018CE190E00E94391D60E080E290E0B4
:102A80000E94271D0C94E6140C94ED14682F8EE020
:102A900090E00C94271DFC01329697E080E0915065
:102AA00029F021912223D9F38F5FF9CF089566236E
:102AB00049F0FC01329608962191621729F0E81737
:102AC000F907D1F780E0089581E008959C01FC01A9
:102AD00032969FEF80E04191461789F09F3F19F4AD
:102AE000411101C0982F8F5F8630A9F79F3F39F0C1
:102AF000F901E90FF11D97FDFA9562830895089594
:102B00009C012A5F3F4FFC014281461301C01282A3
:102B1000019682179307B9F708950C9466150C94E3
:102B20008015029626E0FC0111922A95E9F7089596
:102B300008950C9498150C949815CF930E949B15AA
:102B40000E942E050E949915C0E08C2F0E948E05D0
:102B5000811104C0CF5FCA30C1F701C081E0CF91BD
:102B600008950C9498150C94B1150E94B31580919A
:102B70007902843049F11092530220E488E190E018
:102B80000FB6F894A895809360000FBE2093600064
:102B900080E00E945E060E94B31583B7817F846047
:102BA00083BF83B7816083BF7894889583B78E7F16
:102BB00083BF0FB6F894A8958091600088618093D8
:102BC0006000109260000FBE08950C9498150E944A
:102BD000980E0E94AA0A0E945E060C94E5151F92A8
:102BE0000F920FB60F9211248F939F93AF93BF93C1
:102BF00080915302811113C080916F0290917002F5
:102C0000A0917102B09172024196A11DB11D8093F5
:102C10006F0290937002A0937102B0937202BF9101
:102C2000AF919F918F910F900FBE0F901F901895AD
:102C300082E084BD93E095BD9AEF97BD80936E00CE
:102C400008952FB7F89480916F0290917002A0912F
:102C50007102B09172022FBF0895CF92DF92EF926E
:102C6000FF920F931F932FB7F89440916F025091EA
:102C7000700260917102709172022FBF6A017B0134
:102C8000EE24FF248C0120E030E0C016D106E206DD
:102C9000F30610F4415051099A01281B390BC90160
:102CA0001F910F91FF90EF90DF90CF90089578944F
:102CB0001F920F920FB60F9211248F939F93AF9391
:102CC000BF9380916F0290917002A0917102B091B8
:102CD00072020196A11DB11D80936F029093700244
:102CE000A0937102B0937202BF91AF919F918F91A7
:102CF0000F900FBE0F901F90189587E797E790935E
:102D00000108809300089AE088E10FB6F894A8952E
:102D1000809360000FBE90936000FFCF0E94A414C8
:102D2000811102C00E9444150E94AF148093520288
:102D30000E94B71490937402809373020E94B3149C
:102D4000682F70E080E090E00C94281280915C0283
:102D5000089508950895CF93DF93EC010E944B18D6
:102D6000823011F0843039F581E08093E9008FEFF3
:102D70009091E800815095FD06C095ED9A95F1F788
:102D800000008111F5CF8091E80085FF14C040E07C
:102D900050E068E070E0CE010E9468188091E80081
:102DA0008E778093E80088E0FE01A4E5B2E0019010
:102DB0000D928A95E1F7DF91CF9108950895809162
:102DC0007802811109C00E94F9190E94561A809157
:102DD000E20084608093E2000895109278020895E2
:102DE000089508950C94E71542E061EC81E00C949D
:102DF000721980917B02833009F460C030F4813015
:102E000071F0823009F499C008958A3009F485C0C0
:102E10008B3009F46BC0893009F0A7C020C08091C5
:102E20007A02813A09F0A1C08091E800877F8093FF
:102E3000E80080917E0290917F02892B21F468E066
:102E400084E592E003C060E080E090E070E00E94E2
:102E5000B3188091E8008B778093E8000895809103
:102E60007A02813209F081C080917E0290917F02C6
:102E7000892B09F07AC08091E800877F8093E80071
:102E80008091E80082FD05C0809179028111F8CF20
:102E90006CC02091F3008091F20090E0922B029799
:102EA00029F48091F1008B7F813021F48091F10031
:102EB00080935C028091E8008B7753C080917A0206
:102EC000813A09F052C080917E0290917F02892B55
:102ED00009F04BC08091E800877F8093E8008091E3
:102EE000E80080FFFCCF8091280136C080917A02F3
:102EF0008132D9F580917E0290917F02892BA9F5CC
:102F00008091E800877F8093E8000E94A719809154
:102F10007C02809328010C94980E80917A02813271
:102F200021F58091E800877F8093E8000E94A7192F
:102F300080917D0280935D02089580917A02813AAA
:102F4000A1F48091E800877F8093E8008091E800F9
:102F500080FFFCCF80915D028093F1008091E800BA
:102F60008E778093E8000C94A719089584B7877F23
:102F700084BF0FB6F894A895809160008861809313
:102F80006000109260000FBE90E080E80FB6F894E9
:102F900080936100909361000FBE0E94FD0A0E9421
:102FA000F9190E94561A8091E20084608093E20031
:102FB00078940E94EB1C0E94050B8EE191E00E9428
:102FC000A50A80917902853069F40E94B515809137
:102FD00077028823B1F30E949D15882391F30E9404
:102FE0005218EFCF0E940D0BECCF0C94F717292F3E
:102FF000332723303105C1F058F42130310579F001
:1030000022303105C1F582E290E02AE832E037C093
:103010002132310511F12232310531F12CC082E12A
:1030200090E02CEA32E02BC099278130910561F0C5
:1030300040F08230910559F00397E9F4ECE5F2E0B5
:1030400008C0E6E8F2E005C0E2E7F2E002C0E2E62E
:10305000F2E0849190E09F0112C0672B61F489E057
:1030600090E02CE932E00BC0672B29F480E490E07B
:103070002EEB32E004C080E090E020E030E0FA0186
:1030800031832083089580917902843011F081E0AA
:10309000089582E0089580915E02811102C00C942F
:1030A0004318089580E189BD82E189BD09B400FE1D
:1030B000FDCF8091D8008F7D8093D8008091E00073
:1030C00082608093E0008091E00081FDFCCF089554
:1030D000CF92DF92EF92FF920F931F93CF93DF93E4
:1030E000EC018B017A010E94C619811133C0E114F1
:1030F000F10439F0F70180819181081B190BC80F89
:10310000D91FC12CD12C0115110519F18091E800AE
:1031100085FD16C08091E8008E778093E800E11469
:10312000F10449F0F70180819181C80ED91ED18246
:10313000C08285E00FC00E94C619882321F30AC00F
:1031400089918093F10001501109FFEFCF1ADF0A36
:10315000DACF80E0DF91CF911F910F91FF90EF9038
:10316000DF90CF9008952091800230918102261740
:10317000370748F06115710539F42091E8002E7782
:103180002093E80001C0B901FC0120E06115710540
:1031900079F1809179028823F1F18530F1F1809104
:1031A000E80083FD3CC08091E80082FD2EC0809144
:1031B000E80080FFEBCF2091F3008091F20090E0D7
:1031C000922B6115710551F08830910538F42191E9
:1031D0002093F100615071090196F3CF21E0089727
:1031E00009F020E08091E8008E778093E800CECF50
:1031F0002111CFCF0AC080917902882361F08530F8
:1032000061F08091E80083FD0AC08091E80082FFB0
:10321000F2CF80E0089582E0089583E0089581E090
:10322000089520918002309181022617370748F0D7
:103230006115710539F42091E8002E772093E8009C
:1032400001C0B901FC0120E06115710591F1809187
:103250007902882309F440C0853009F43FC0809189
:10326000E80083FD3DC08091E80082FD2FC0809181
:10327000E80080FFE9CF2091F3008091F20090E018
:10328000922B6115710559F08830910540F4249115
:103290002093F1003196615071090196F2CF21E03F
:1032A000089709F020E08091E8008E778093E8008D
:1032B000CBCF2111CCCF0AC080917902882361F055
:1032C000853061F08091E80083FD0AC08091E800BC
:1032D00082FFF2CF80E0089582E0089583E00895B0
:1032E00081E00895982F973068F59093E90098173A
:1032F00039F07091EC002091ED005091F00003C086
:10330000242F762F50E021FD02C09F5FECCF30913B
:10331000EB003E7F3093EB003091ED003D7F30932A
:10332000ED003091EB0031603093EB007093EC00D6
:103330002093ED005093F0002091EE0027FDE5CFA3
:1033400080E008958F708093E90081E00895809176
:103350007A0287FF11C08091E80082FD05C080914C
:1033600079028111F8CF11C08091E8008B770BC0F2
:1033700080917902882349F08091E80080FFF8CF9E
:103380008091E8008E778093E80008952091E40012
:103390003091E50095E64091EC00842F817040FF6C
:1033A00023C08091E80080FD1DC0809179028823B0
:1033B00099F0853099F08091EB0085FD11C0409126
:1033C000E4005091E5002417350729F3915011F0DE
:1033D0009A01E1CF84E0089582E0089583E00895A2
:1033E00081E0089580E008954091E80042FFDDCF3C
:1033F00008950E94671A0E946F1AE0EEF0E0808143
:1034000081608083E8EDF0E080818F77808319BC54
:10341000A7EDB0E08C918E7F8C9380818F7E80832E
:103420001092780208950F931F93CF93DF930E9419
:10343000671A0E946F1AC8EDD0E088818F77888361
:1034400088818068888388818F7D888319BC1092E9
:10345000790210927502109277021092760200EEB5
:1034600010E0F80180818B7F808388818160888370
:1034700042E060E080E00E947219E1EEF0E08081BD
:103480008E7F8083E2EEF0E08081816080838081A6
:1034900088608083F80180818E7F8083888180614D
:1034A0008883DF91CF911F910F910895E8EDF0E0AF
:1034B00080818F7E8083E7EDF0E080818160808372
:1034C00084E082BF81E0809378020C94131AE8EDC7
:1034D000F0E080818E7F80831092E2000895109248
:1034E000DA001092E10008951F920F920FB60F922A
:1034F00011242F933F934F935F936F937F938F93F9
:103500009F93AF93BF93EF93FF938091E10082FF6E
:103510000BC08091E20082FF07C08091E1008B7FA9
:103520008093E1000E94EA1C8091DA0080FF1FC0B6
:103530008091D80080FF1BC08091DA008E7F80933D
:10354000DA008091D90080FF0DC080E189BD82E161
:1035500089BD09B400FEFDCF81E0809379020E940D
:10356000DF1605C019BC109279020E94ED168091F9
:10357000E10080FF19C08091E20080FF15C08091BA
:10358000E2008E7F8093E2008091E2008061809370
:10359000E2008091D80080628093D80019BC85E059
:1035A000809379020E94F1168091E10084FF30C07F
:1035B0008091E20084FF2CC080E189BD82E189BD59
:1035C00009B400FEFDCF8091D8008F7D8093D80094
:1035D0008091E1008F7E8093E1008091E2008F7EF8
:1035E0008093E2008091E20081608093E20080910C
:1035F0007502882311F084E007C08091E30087FD05
:1036000002C081E001C083E0809379020E94F2163B
:103610008091E10083FF29C08091E20083FF25C0F3
:103620008091E100877F8093E10082E080937902BE
:10363000109275028091E1008E7F8093E10080916D
:10364000E2008E7F8093E2008091E20080618093AF
:10365000E20042E060E080E00E9472198091F00098
:1036600088608093F0000E94F016FF91EF91BF9167
:10367000AF919F918F917F916F915F914F913F910A
:103680002F910F900FBE0F901F9018951F920F92C1
:103690000FB60F9211242F933F934F935F936F9325
:1036A0007F938F939F93AF93BF93CF93DF93EF93CA
:1036B000FF93C091E900CF708091EC00D82FD170BA
:1036C00080FDD0E81092E9008091F000877F809320
:1036D000F00078940E948A1B1092E9008091F0001B
:1036E00088608093F000CD2BCF70C093E900FF91EC
:1036F000EF91DF91CF91BF91AF919F918F917F918A
:103700006F915F914F913F912F910F900FBE0F904E
:103710001F9018951F93CF93DF93CDB7DEB7AA976D
:103720000FB6F894DEBF0FBECDBFEAE7F2E080919E
:10373000F100819322E0E238F207C9F70E94F916FE
:103740008091E80083FF2EC180917A0290917B02E4
:10375000492F50E04A30510508F024C1FA01E059E0
:10376000FF4F0C94061D803821F0823809F01AC1F1
:1037700008C08091760290917702992389F0826047
:103780000FC080917E028F70873008F00BC180934C
:10379000E9008091EB0085FB882780F91092E90011
:1037A0009091E800977F9093E8008093F100109249
:1037B000F100D1C0282F2D7F09F0F4C0882319F023
:1037C000823061F0EFC080917C02813009F0EAC064
:1037D000933009F080E0809377022EC080917C02C4
:1037E00081112AC080917E028F702FEF280F263022
:1037F00008F0D8C08093E9002091EB0020FF1CC0A6
:10380000933021F48091EB00806214C09091EB0022
:1038100090619093EB0021E030E0A90102C0440FD9
:10382000551F8A95E2F74093EA001092EA008091D2
:10383000EB0088608093EB001092E9008091E80033
:10384000877F8093E8000E94A719ACC08111AAC0AD
:1038500010917C021F778091E3008078812B809308
:10386000E3008091E800877F8093E8000E94A71919
:103870008091E80080FFFCCF8091E3008068809316
:10388000E300111102C082E001C083E0809379025D
:1038900089C08058823008F085C080917C02909168
:1038A0007D028C3D53E0950779F583E08A838AE2B7
:1038B00089834FB7F894DE01139620E03EE051E291
:1038C000E32FF0E050935700E49120FF03C0E2950E
:1038D000EF703F5FEF708E2F90E0EA3010F0C796E8
:1038E00001C0C0968D939D932F5F243149F74FBF40
:1038F0008091E800877F8093E8006AE270E0CE0163
:1039000001960E94B31816C060917E0270917F02EA
:10391000AE014F5F5F4F0E94F517BC01892B09F480
:1039200041C09091E800977F9093E80089819A8147
:103930000E9411198091E8008B778093E80032C0D3
:10394000803881F58091E800877F8093E80080913E
:1039500075028093F1008091E8008E7772CF81111B
:1039600021C080917C0290917D0299270297D4F426
:103970008091E800877F8093E80080917C028093AB
:1039800075020E94A71980917502811106C080916D
:10399000E30087FD02C081E001C084E080937902EA
:1039A0000E94F4168091E80083FF0AC08091E8002D
:1039B000877F8093E8008091EB0080628093EB002A
:1039C000AA960FB6F894DEBF0FBECDBFDF91CF91A0
:1039D0001F9108950895CF93809179028823A1F0D3
:1039E000C091E900CF709091EC00892F817090FD1B
:1039F00080E8C82B1092E9008091E80083FD0E94C6
:103A00008A1BCF70C093E900CF910895EE0FFF1F7E
:103A10000590F491E02D0994FB01DC0104C08D9127
:103A20000190801921F441505040C8F7881B990B30
:103A30000895F999FECF92BD81BDF89A992780B576
:103A40000895A8E1B0E042E050E00C944D1D262F0F
:103A5000F999FECF92BD81BDF89A019700B4021684
:103A600039F01FBA20BD0FB6F894FA9AF99A0FBE32
:103A700008950396272F0E94281D0E94271D252F99
:103A80000E94281D242F0C94281D0196272F0E9488
:103A9000281D0C94271DDC01CB01FC01F999FECFF8
:103AA00006C0F2BDE1BDF89A319600B40D924150C6
:0A3AB0005040B8F70895F894FFCFD6
:103ABA000501BC0100000001BA01BC0105BD0101FC
:103ACA00BA01BB0100000005C201FFFF4702A616AA
:103ADA00AB16A916DE16AA1601F6F7313332366688
:103AEA0097C634350000000000E200E900EA00B59C
:103AFA0000B600B700CD008301CC008A0192019480
:103B0A00012102230224022502260227022A02B3E5
:103B1A0000B4006F007000818283E200E900EA00CD
:103B2A00B500B600B700CD008301CC008A0192012E
:103B3A0094012102230224022502260227022A02D4
:0C3B4A00B300B4006F00700081828300A3
:00000001FF
